:020000041000EA
:1000000000B5324B212058609868022188439860DF
:10001000D860186158612E4B002199600221596106
:100020000121F02299502B49196001219960352056
:1000300000F044F80222904214D00621196600F024
:1000400034F8196E01211966002018661A6600F04E
:100050002CF8196E196E196E052000F02FF8012189
:100060000842F9D1002199601B49196000215960AB
:100070001A491B48016001219960EB211966A021F2
:10008000196600F012F800219960164914480160C1
:100090000121996001BC002800D000471248134993
:1000A000086003C880F30888084703B5996A0420EC
:1000B0000142FBD001200142F8D103BD02B5186610
:1000C0001866FFF7F2FF186E186E02BD00000240BE
:1000D000000000180000070000035F00212200005C
:1000E000F4000018222000A00001001008ED00E03C
:1000F00000000000000000000000000074B24E7A12
:1001000000200420F7010010CB010010CD010010E9
:10011000C9010010C9010010C9010010C901001077
:10012000C9010010C9010010C9010010CF01001061
:10013000C9010010C9010010D1010010D301001045
:10014000C1010010C1010010C1010010C101001067
:10015000C1010010C1010010C1010010C101001057
:10016000C1010010C1010010C1010010C101001047
:10017000C1010010C1010010C1010010C101001037
:10018000C1010010C1010010C1010010C101001027
:10019000C1010010C1010010C1010010C101001017
:1001A000C1010010C1010010C1010010C101001007
:1001B000C1010010C1010010C1010010C1010010F7
:1001C000EFF30580103800BE00BE00BE00BE00BECA
:1001D00000BE00BEF2EB88711C2605104C260510EF
:1001E0003802001090A31AE71E481F49086006C88D
:1001F00081F3088810471D480068002801D019487D
:10020000F3E70DA40ECC002902D000F012F8F9E7B4
:100210001749184A002000E001C19142FCD116495B
:100220008847164988471649884700BEFDE701C937
:1002300001C29A42FBD370474C260510E000002013
:1002400018180020843D0510000004200000042040
:10025000843D051000100420001004200000000060
:10026000704700000000000008ED00E0000000D032
:1002700018180020882A0320294C0010B903001008
:10028000214C0010F8B5C04606480749091A8B10E2
:10029000C90FC91810B5491003D0044B002B00D06A
:1002A000984710BD18180020181800200000000002
:1002B000054B10B5002B03D00449054800E000BFF2
:1002C000FFF7E2FF10BDC046000000009C2803209D
:1002D0007485011070B50E00141E27D0002305226E
:1002E0002000154909F0FEFC144B050098420ED081
:1002F000134804F06BFE0122124B1A603000218972
:1003000009F0FAFE200009F0AFFA002070BD0023CA
:10031000072220000C4909F0E5FCA842EED00B486A
:1003200004F054FE01220A4B1A60E7E7094804F082
:100330004DFE0D204042E9E7AC850110FFFF0000B3
:10034000B4850110D4320020EC850110F485011031
:10035000CC3200207885011070B50D00141E06D136
:10036000064804F033FE064B20001D6070BD1100EE
:10037000044804F0AFFE0025F5E7C0465C86011096
:10038000D03200203886011070B50D00141E08D13F
:10039000064804F01BFE280005490AF0A1FA2000D7
:1003A00070BD1100034804F095FEF8E7CC860110FB
:1003B000D5020010A4860110F0B5DE4657464E4621
:1003C0004546E0B5BFB004F0AFFD12F095FB002844
:1003D00000D044E212F024FBE94CEA48210004F08A
:1003E00079FE2000E849E94BE94A12F027FB041E98
:1003F00000D040E2E74B1868043012F04FF9E64BAA
:100400000100180004F066FE16F0BCFE20000AF0A1
:10041000A5FC0600E14D1EA9280012F067F829008E
:10042000DF4AE04804F056FEDF4BDD4A1EA93000EB
:1004300009F0AEFE20000AF091FC06001EA928007B
:1004400012F054F82900D94AD94804F043FED94B98
:10045000D64A1EA9300009F09BFE16F09DFEE12150
:10046000D548490201F092FE02210C2000F0ECFC7C
:1004700002210D2000F0E8FCD049D14807F008FB2C
:10048000D049D14807F07EFC03210E2000F0DCFCAF
:1004900003210F2000F0D8FC220001210E2000F0E3
:1004A000EDFC220001210F2000F0E8FC01211020CA
:1004B00000F0CAFC0121122000F0C6FC012113202B
:1004C00000F0C2FC112000F05FFDD02380221B064B
:1004D00092025A62BD485A6104F078FD00F004FBB4
:1004E000142001F0EFFC00F023FB00F00DFC00F005
:1004F0001BFCB74BB74C0393B74B0A93B74B0C930A
:10050000B74B0D93B74B0B93B74B0493B74B059376
:10051000B74B0793B74B0893B74B0693B74B0E9364
:10052000B74B1793B74B1993B74B1A93B74B189315
:10053000B74B0993B74B9A46B74B57461193B74BF6
:100540000F93B74B1093B74B1593B74B1293B74B11
:100550001393B74B1693B74B1493B74B1B9303E00E
:100560003B68002B00D0A3E012F0BAFA039B1B6893
:10057000002BF5D00A9804F029FD0C9804F026FD14
:10058000082200211CA802F063FE00251CAE2800F2
:1005900000F002FA013530800236042DF7D10D98B3
:1005A00004F014FD1AAB1AAA1AA91AA8DB899289B9
:1005B0004989008900F016FA051C0B9804F006FD25
:1005C000049B281C196802F061FD0025A046B9466D
:1005D000061C2900059804F07DFD301C00F0BCF9D4
:1005E000FA20800001F06EFC2900079804F072FDEB
:1005F0001CAC280000F0D0F91EAB20800234A342CE
:10060000F7D12900089804F065FD1AAB1C895F89B1
:100610009B8939009A461AABDB89524620009B46DB
:1006200000F0E0F92900061C069804F053FD049B35
:10063000301C196802F027FD0135061C032DC8D1B6
:1006400043464A46A0461C000E98B946170004F0DF
:10065000BDFC2368002B21D05B46019353464246E4
:10066000179900931EA84B4604F052FA16F08AFD23
:100670001EA817F0FDFC012382B21EA920680CF011
:1006800087FC051E00D0DFE020680DF007FB16F0A8
:1006900083FD199B1A98196804F01CFD099804F051
:1006A00095FC0023039A13603B68002B00D15BE7A5
:1006B000099804F08BFC119804F088FC0F9804F062
:1006C00085FC00F047FB109804F080FC2368002BA9
:1006D00000D1C0E0159804F079FC16F053FD012319
:1006E0000422129920680CF053FC20680DF0D6FA11
:1006F00016F052FD0A2001F0E5FB96239B02984676
:100700004E4B64269A46139B434499463B0047460A
:1007100098463D00574508D9484D06E016F03CFD87
:1007200012F0DEF9052001F0CDFB16F02BFD20685C
:10073000835BAB42F2D34B46AAB2D91B01230CF028
:1007400027FC002814D120680DF0A8FA16F024FD2B
:100750003B4B9C463B4B67449F42DAD1474614983B
:1007600004F034FC099804F031FC00233B60FBE604
:1007700001001698474604F0ADFC16F00DFDEEE7BB
:1007800064A701101C87011054A7011030750000E8
:1007900004004000902803205887011044A701104E
:1007A0003A3000007C8701108903001039300000C6
:1007B000A4870110590300100040034020A1070046
:1007C00000C00340A086010040120020CC87011029
:1007D000D4320020D0320020D887011004880110C4
:1007E0003488011068880110102A0320AC88011099
:1007F000E08801101C89011058890110A889011096
:10080000E0890110D8320020F0890110048A01101B
:10081000288A0110CC320020508A01107C8A0110F5
:100820009C8A0110C88A0110F48A0110E036002069
:10083000008B0110388B0110548B0110B40500009F
:100840004CFAFFFF78FBFFFF16F0A6FC2900189872
:1008500004F040FC22E71B9804F0B8FB82E708484C
:1008600004F0B4FB012040423FB0F0BCBB46B246AE
:10087000A946A046F0BD034804F0A8FB0120F3E719
:10088000088701103C870110F8B52A4B64211C88A9
:10089000294B013418880126604302F02DF8274BBC
:1008A000050018886421604302F026F83100244FC7
:1008B00004003A68234893009B18234A9B009A1827
:1008C00012682D0491431A181160204920485A18C3
:1008D0001268240455401F4A2D0C94462D0463448D
:1008E0001D6001F0EFFA31003A68174D93009B1834
:1008F0009B005A191268134891431A181160134942
:10090000FA205A18126880005440124A240C944667
:10091000240463441C6001F0D5FA3A6893009B18E4
:100920009B005A1912681640064A944663441E609A
:10093000F8BDC04664110020621100206011002043
:10094000F429032000100540000005400C0005407C
:10095000DC0500000C10054070B50021041C02F0FD
:10096000F1FB002815D00B49201C02F092FB00215E
:10097000051C02F0E7FB002400280AD00134FFF731
:1009800083FF200002F0E4FB291C02F0CDFB0028CD
:10099000F4D170BD0000704170B5030082B000203A
:1009A000072B1ADC69460122D02580260A701B011C
:1009B000813A134301AC2D06B6024B7088700323B5
:1009C00022000748AE6117F083FDC0226E61637894
:1009D000A0781B0292001340184302B070BDC046BD
:1009E00000C00340F0B5C646070000B588181400E3
:1009F0001E000D0002F0ACFB8046B81902F0A8FB07
:100A0000011C404602F03FFB8046E81902F0A0FBC3
:100A1000051CA01902F09CFB011C281C02F033FBF2
:100A20000021041C404602F077FB002805D000217D
:100A3000201C02F071FB002829D14146201C02F045
:100A4000AFFB244902F039FB02F0A4FB224A234BFE
:100A500002F0BFF902F086FA0021041C02F064FBE8
:100A6000002819D11E49201C02F00DFB0021051C95
:100A7000041C02F059FB002821D1211C194802F066
:100A800002FB1849041C02F055FB002800D000248A
:100A9000201C80BCB846F0BD1249201C02F0F6FABA
:100AA0000F4902F0F0FA0021041C02F03DFB00287F
:100AB000E3D0201C0B4902F0E9FA041CDDE70949E8
:100AC000281C02F0E3FA011C064802F0DCFA041CC0
:100AD000DEE7C04600003443182D4454FB21094092
:100AE000000087430000B443042110B51C2000F02F
:100AF000ABF910220921094BDA6778329950084B7B
:100B0000833A1B6853401B04064A1B0C1360064BB8
:100B10001A6801239343054A136010BD0000054085
:100B20008400054084100540780005407810054099
:100B300030B585B000256A46634C644B2121938112
:100B4000200003AA0223009507F044F9642001F075
:100B5000B9F96A465E4B21219381200003AA022342
:100B6000009507F037F982236A465B0193812121C2
:100B700003AA02232000009507F02CF96A46554B82
:100B800021219381200003AA0223009507F022F976
:100B90006A46514B21219381200003AA022300952C
:100BA00007F018F96A464D4B21219381200003AAD2
:100BB0000223009507F00EF96A46494B21219381E3
:100BC000200003AA0223009507F004F96A46454B6A
:100BD00021219381200003AA0223009507F0FAF84F
:100BE0006A46414B21219381200003AA02230095EC
:100BF00007F0F0F86A463D4B21219381200003AABB
:100C00000223009507F0E6F86A46394B21219381CB
:100C1000200003AA0223009507F0DCF812236A469D
:100C2000FF339381103B03AA212120000095FF3B55
:100C300007F0D0F86A463E2321219381200003AAC1
:100C400000953C3B07F0C6F86A462A4B2121938168
:100C5000200003AA0223009507F0BCF88C236A4603
:100C60005B009381173B03AA212120000095FF3BE5
:100C700007F0B0F86A46204B21219381200003AA97
:100C80000223009507F0A6F86A461C4B21219381A8
:100C9000200003AA0223009507F09CF86A46184B2F
:100CA00021219381200003AA0223009507F092F8E6
:100CB0006A46144B2121938120000223009503AA48
:100CC00007F088F805B030BD401200201280FFFF09
:100CD00012140000138FFFFF4F400000503400003B
:100CE000510C00005217000053290000544000002E
:100CF000581A00001713000032B6FFFF1902000057
:100D00001A7A0000030A000070B5D02500240126DD
:100D10002D06200000F038F93300A3400134AB6207
:100D2000082CF6D170BDC04610B51B2000F02CF980
:100D30001A2000F029F9162000F026F9D02380228D
:100D40001B0612059A628022D2049A628022D20384
:100D50009A6210BDF0B5D6464F464646D022802353
:100D6000C0B512061B0551681942FCD1D022802360
:100D700012061B0551681942FCD0002380222C4C1E
:100D8000D2042360F0339A462A4B94469946802237
:100D9000D02396271B06D203BF0260465968014242
:100DA000FBD0A020800059681142FCD05E68216809
:100DB000B94204D221684D1C25604D466E545968D5
:100DC0001142FCD101380028EDD1514601398A4643
:100DD0000029E2D19626184804F0F8F8174B0024B1
:100DE00098460F27B60201E0B4420FD04B4640466A
:100DF000195D013404F06EF92742F5D10A2004F0A0
:100E00009BF8012001F05EF8B442EFD10C4804F0E9
:100E1000DDF80C4B1B68986816F060FEFA20800025
:100E200001F050F8E0BCBA46B146A846F0BDC04655
:100E3000582A0320E0360020908B0110A48B01106B
:100E4000AC8B0110CC160020094A83009A1810B50B
:100E500014684022544080322240064CC000A44610
:100E600063441A60044B9C466044416010BDC04618
:100E700004C0014004D0014000400140074B800005
:100E8000C3181B68C90092000A435A400C23134040
:100E9000034A9446604403607047C04604C0014062
:100EA00004D001408000002905D0064B9C46022357
:100EB000604403607047044B9C4602236044036017
:100EC000F8E7C04604E0014004F00140D0231B06CF
:100ED0001B6830B50500584243412F205B428343D5
:100EE0000E48EC08844607202840800081402000FE
:100EF0000B4D3C3063448000A40041511B19002A73
:100F000005D08022920194466344196030BDC0220E
:100F10009201944663441960F8E7C04630410140AD
:100F200000400140D023F0B5C6461B0698461B681A
:100F30000C4F9B001600FA5804000D0000B510423B
:100F400009D1290014430D203200FC5000F092F921
:100F500080BCB846F0BD01F09FFB43461B689B0078
:100F6000FA58EEE7CC28032010B504000D2000F05D
:100F70007BFAD0231B061B6802499B005A58A243E8
:100F80005A5010BDCC2803200123D02283401206E2
:100F900093629361094A83009A1811684022514074
:100FA00080320A400649C0008C4663441A60054BF3
:100FB0009C460523604443607047C04604C001401E
:100FC00004D00140004001408023DB051868000F79
:100FD0007047C0460FB400B5084883B003F0F6FF71
:100FE000049B002B07D005A91800019103F0B8FD60
:100FF000034803F0EBFF012003F0CAFDC08B011092
:1010000014A60110EFF3108072B6034A1368002B88
:10101000FCD0BFF35F8F70472C0100D0BFF35F8F10
:101020000022024B1A6080F3108870472C0100D018
:1010300070B5EFF3108C72B60D4D2B68002BFCD001
:10104000BFF35F8F0724CB08C618C05C01230C4098
:10105000A3401C000440034207D118433070BFF383
:101060005F8F2C608CF3108870BD1000FFF7B2FF0B
:101070002C0100D0F8B54746CE46884680B5EFF340
:10108000108C72B61C4D2C68002CFCD0BFF35F8F07
:101090009A4222D807210126894602E00132934272
:1010A00018D34D4637001540AF40D4080119045DF0
:1010B0002742F3D110003C430C70BFF35F8F002236
:1010C0000D4B1A608CF3108800280EDBC0BCB946AB
:1010D000B046F8BD01204042EFE7BFF35F8F002329
:1010E0002B608CF31088012040424346002BEDD04A
:1010F0000898FFF76FFFC0462C0100D030B5EFF322
:10110000108C72B60A4C2368002BFCD0BFF35F8FA3
:10111000072301220B409A40CD08435D934343557A
:10112000BFF35F8F002323608CF3108830BDC0466F
:101130002C0100D0044A1078431CDBB2172B00D9D5
:10114000102313707047C0466611002010B5064B7F
:10115000064C82B00100009318221F232000FFF7E5
:1011600089FF02B010BDC046D08B011000240020C2
:101170000021044B044ABFF35F8F02C39342FAD1AC
:101180007047C046000100D0800100D0054B064AE0
:101190001360064A136053609360D3601361536118
:1011A000936170478080808000E400E004E400E008
:1011B0001F2318401E3B8340002905D0C021044A4C
:1011C0004900535013607047802201498B50FAE761
:1011D00000E100E001228240034B1B6813405A1ECD
:1011E0009341D8B27047C04600E100E0012383403C
:1011F000014A13607047C04600E200E0064B103021
:101200009B688000C358054A00209B1A2F229A42EF
:101210004041C0B27047C04600ED00E068110020B8
:1012200070B50D00EFF3108672B60F4A1368002BED
:10123000FCD0BFF35F8F0D4B10309B6884001B59AF
:101240000B4A934203D09D4201D001F025FA074B8F
:101250009B681D51BFF35F8FBFF35F8F0022024B6E
:101260001A6086F3108870BD240100D000ED00E004
:10127000C1010010F0B557464E46DE464546E0B582
:1012800085B0060000911700EFF3108B72B66A4A22
:101290001368002BFCD0BFF35F8F0025674B5D57B1
:1012A0009A46002D00DAA9E06B00654C01935B19AA
:1012B0009B009846A146C1444B4652469B79103646
:1012C0001370604BB6009B6899590B1B2F2B33D9B9
:1012D0005D4B994200D0ACE0019B42469C465B4B83
:1012E0006544AD0063535A4B0232A218043B9B1A6B
:1012F0001B05584A5B0D651913436B80564B012142
:10130000AB80FF23AB71009BEF71AB604B460B438F
:1013100019004C4B9B689951BFF35F8FBFF35F8FF0
:101320000022454B1A608BF3108805B0F0BCBB4619
:10133000B246A946A046F0BD01200A008243D379F7
:101340008C46BB4231D84546130044491B1B5B41C8
:101350005943090D3D4B63533D4B02356519043B21
:101360005B1B1B053B4D5B0D2B43AA464D466B801B
:101370000425AC465546E044131F44441B1B1B0583
:101380005B0D1D434B46997100999D8099604946BC
:10139000DF71334B01431360BBE75800C018800076
:1013A0002018C179B9422FD902000623D356002B49
:1013B000F3DA02932B4B61460393131D9A460423E1
:1013C0005B429C46E14450464B461B1A1B055B0D95
:1013D0009C46204B95719846634640460343938054
:1013E000019B5A199200039BA418A380029B1C4ADC
:1013F000A371009B2260E771A3608AE701F04CF9BA
:10140000002553465D574FE7908802934005131D12
:101410009A46031561469C464046D44463460430D0
:101420002018181AE0230005400D1B0218430390F2
:10143000C5E701F031F94FE7240100D07C2A0320F1
:101440006811002000ED00E0C101001000A1FFFFC5
:101450009811002000E0FFFF01BDFFFFAAAA0000D5
:101460000148804701BD0000F0B5DE4657464E46B4
:101470004546E0B50C0083B0EFF3108872B6634ABE
:101480001368002BFCD0BFF35F8F614B61499A68F2
:10149000030010339F00D55901938D4243D0A542DC
:1014A00054D05D4EAA1B2F2A3DD85C4B9B461B682F
:1014B000994601231A009C4682404B4613401F2246
:1014C00099466346024093409A4680225B465046C6
:1014D0009850BFF35F8FEFF305839B46002B37D007
:1014E000019B5B4501D001F0D7F801232A009A4304
:1014F0009068844208D176E04B005B189B00F3189B
:101500009868844236D01A00062151560029F3DA31
:10151000844254D04B46002B27D0C02251463F4B2B
:101520005200995019603A4B9B68DD51BFF35F8FB1
:10153000BFF35F8F0022354B1A6088F3108803B029
:10154000F0BCBB46B246A946A046F0BD0D00EAE796
:101550002A0063469A4390688442D5D106201056EB
:10156000130000280ADA0D0031E0802351462B4A8F
:10157000D150D8E706201856002821DB4200111868
:10158000890074188B46A1689960E179D9710621A8
:1015900061569971002924DBA488F11A6405241589
:1015A0005C44091909051E4C490D21439980131803
:1015B0001C4A9B001178F31899711070AAE7130068
:1015C0005946002914D1FF3191711749918015496D
:1015D0000A789A71154A9B1B5B415A43120D0A7097
:1015E00098E71149E2E70620105613000028C5DAF3
:1015F0000F4A1049D21A083A5002400D014399800F
:101600000D4952080A43DA8084E7C046240100D01D
:1016100000ED00E0C10100106811002000E100E0D1
:1016200000E0FFFF7C2A032001BDFFFFAAAA000003
:10163000A211002000F0FFFF00F8FFFF70B50124A9
:101640000443EFF30581EFF3108C72B6214A13685F
:10165000002BFCD0BFF35F8F1F4B05001F4AED1A14
:101660006D416A43120D1E4D8900AE6852B2765824
:10167000A6421CD00621595691421CD0122159561F
:10168000914222D01E215956914220D02A215956EA
:101690000324914210D0134B19781A708171BFF353
:1016A0005F8F00220B4B1A608CF3108870BDAB6803
:1016B0000D4C5C50EFE700246100091989005B18AC
:1016C000FF21997109499980E5E70124F4E7022493
:1016D000F2E7C046240100D068110020AAAA000049
:1016E00000ED00E07C2A0320C101001001BDFFFFD6
:1016F00010B5084B084C82B001000093002205236E
:101700002000FFF7B7FC002801DB1F23181A02B0E6
:1017100010BDC046EC8B0110872A032070B5040071
:101720000E001500FFF706FD0100200000F006F88E
:10173000A680E580BFF35F8F70BDC046024B9C461C
:1017400061448900016070474000003470B5114C5D
:10175000114DAC420FD2FF262368002B0CD0FFF7AF
:10176000E9FC01002000FFF7E9FFA680BFF35F8FCF
:101770000834AC42F0D370BDFFF7DCFC0100200060
:10178000FFF7DCFF2671BFF35F8F0834AC42E3D371
:10179000F1E7C046101800201818002010B504000A
:1017A000FFF7C8FC01002000FFF7C8FFFF232371EB
:1017B000BFF35F8F10BDC04610B504000120FFF7D6
:1017C000C5FC034BC3189B002360BFF35F8F10BDA4
:1017D00040000034034B9C46614489000160BFF324
:1017E0005F8F7047400000340A4B1968EFF3108098
:1017F00072B60A68002AFCD0BFF35F8F1B68BFF384
:101800005F8F00221A6080F3108840BF0020002103
:101810007047C046F0290320F0B5DE4657464E46D5
:101820004546E0B587B0EFF30583032201251A4052
:10183000954091008846A946B34B03925C58B34B40
:101840001D60B34B04934B46B24843630823E55EE7
:10185000002D37DAA3881BB2002B00DBADE0A379A3
:10186000002B00D0EEE00823E05E002820DB4300E0
:1018700062691B18DB00D3189E68DD68731C00D1F9
:1018800011E1A44801004144826A0B69B71A9B1A0E
:101890009F4215D30123026A039883401A420FD056
:1018A0009C4800F01DFC8D4202DCCCD18642CAD996
:1018B00040BF07B0F0BCBB46B246A946A046F0BD4B
:1018C0000E61EDE762696B0092465B19DB009A449A
:1018D00053469E68DF6800F003FC8F42BADC00D1FB
:1018E00003E1002F00DAE8E05246534652691B69D3
:1018F0009346049A934200D1D9E052460821605E93
:10190000528800045946104398470090019100996D
:10191000019A0B001000134300D1CEE013000A001F
:10192000B61A9F41002806DB7A4800F0D9FB009EDA
:10193000019F36184F4153469E60DF6000229A5E39
:10194000002A00DA86E7530099186069C900411837
:1019500002938B68C9689B46B94200DD7AE702D1E1
:10196000B34200D976E708239C46A4440595654612
:101970002281A446029B2C0006E053009918C9005E
:1019800041188D68C968AB469B18DB00C318B94283
:1019900006DC00D1B3E01C000023E25E002AECDA92
:1019A000230064469C4653461A806346059D1D806D
:1019B000A3881BB2002B00DA51E72269EFF31081F4
:1019C00072B61368002BFCD0BFF35F8F0123A7888A
:1019D0005B42A3803FB22369BFF35F8F00221A608E
:1019E00081F31088002F00DA39E723000833220042
:1019F0009A4666697B00DB19DB00F318996850464C
:101A00008C460824115FDD68002910DB029306E094
:101A1000AB4244D00023E15E2000002906DB4C00ED
:101A20006418E4003419E368AB42F1DD029B0780DF
:101A300000201F5E1980002FDCDA1400A379002B30
:101A400000D110E70023A37126000823E15E0836C9
:101A50004B1C00D12CE70800A246656902E03E005D
:101A60004B1C1AD04B005B18DB00EF180A008C46A9
:101A7000E95E7B881BB2002BF1DA01235B42DC17A5
:101A8000BB60FC60824205D0534631801B893B809D
:101A900053461A8160464B1CE4D15446E5E6A368E0
:101AA0006345B7D9C2E76B1C00D0EAE6F8E65B46AF
:101AB00058461B69984700281BD153461B8822694A
:101AC0002381EFF3108372B611680029FCD0BFF3B5
:101AD0005F8F514662880A8022696580BFF35F8FFD
:101AE0000021116083F31088B4E6864200D8F8E63E
:101AF000B0E65B461A685B680092019307E7B3455E
:101B000000D848E74CE7C046BC2803203C7005409D
:101B1000191800100040054070B52E4C2569002DA5
:101B200004D00A212C48FFF709FE70BD2B4E03217B
:101B3000300000F0CBFAE660FFF7FCFA284B0322F6
:101B40009C46D02322701B061B6801216370254B25
:101B50006044A3600F2380002061022063806369DA
:101B60004942A18019800231198647311D8358529C
:101B700018315A5275325C399952183201319952E2
:101B80001832013199521832013199520835183200
:101B90009D5202311832995218320131995218323D
:101BA000013199521832013199521832013199524A
:101BB0001832013199520C4B0C49DC60013035620E
:101BC000FFF72EFB01210320FFF7F2FA084B1D60FF
:101BD000A7E7C046B0110020F029032000400540CF
:101BE00040000034FFFF1000BC280320191800102B
:101BF0003860054000487047B0110020F8B51F005C
:101C000008AB1B7804001600002B08D100F070FA16
:101C100032003B00121A8B41002B00DA52E022699D
:101C2000EFF3108072B61368002BFCD0BFF35F8F08
:101C30000223E15E63694A005218D2009B182269B0
:101C4000002936DB1D886580BFF35F8F0025156096
:101C500080F31088069A9E60DF601A61079A5A61C5
:101C60005A8801325204520C101C002A1FD082B232
:101C70005880080410432669EFF3108772B6326863
:101C8000002AFCD0BFF35F8FA2881A80A18023694D
:101C9000BFF35F8F00221A6087F310880A49237808
:101CA0008C4601329A40E36863441A60F8BD012013
:101CB000DDE7BFF35F8F0023136080F310880120FE
:101CC0004042F3E70020F1E73C20000070B501003E
:101CD0000469EFF3108C72B620680028FCD0BFF3C3
:101CE0005F8F02200D5E4C6968004019C000241807
:101CF0000869002D36DB26884E80BFF35F8F0026F3
:101D000006608CF31088E3606388049801332061D7
:101D10005B0405985B0CA26060611A1C002B1FD04D
:101D200093B22804628018430A69EFF3108C72B6EC
:101D30001368002BFCD0BFF35F8F8B8823808D80CE
:101D40000B69BFF35F8F00221A608CF310880B7849
:101D500001329A40CB6808498C4663441A6070BDD2
:101D60000122DDE7BFF35F8F002303608CF310884F
:101D700001204042F3E7C0463C20000010B54389F3
:101D80000A1493421ADD53009B184269DB00D318F2
:101D90000469EFF3108C72B62268002AFCD0BFF3FE
:101DA0005F8F5A88090494B2090C8A4208D00369EB
:101DB000BFF35F8F00221A608CF31088002010BDE3
:101DC0008022120214435C80012302698371BFF3F5
:101DD0005F8F002111608CF31088044902788C46D3
:101DE0009340C268012062441360E8E73C20000091
:101DF00040787047F0B506000F0006246442E517EE
:101E0000C646A4197D4100B582B08D4214D811D0C8
:101E100000F06EF922002B00121A8B41002B15DC0A
:101E2000002B44D03000390000F0A0F902B080BC93
:101E3000B846F0BD8442EBD90024002500F058F9E3
:101E400022002B00121A8B41002BE9DD00F050F923
:101E500022002B00121A8B41002B0ADB0023019376
:101E6000144B2200009314482B00FFF72FFF013082
:101E7000D8D0A04629000024104A1148536A99423C
:101E800004D8956A4545CDD29942CBD10568EFF388
:101E9000108C72B62B68002BFCD0BFF35F8F0368E9
:101EA000BFF35F8F1C608CF3108820BFE6E7002A29
:101EB000B8D0CBE7E9170010B01100200040054072
:101EC000F0290320F0B5C64600B582B0040000F04A
:101ED0000FF9FA2206000F002000002300219200D3
:101EE00001F0B4F88019794104000D1E02DA0124D2
:101EF0002E4D644206267642F71736196F41AF42DF
:101F000014D811D000F0F4F832003B00121A8B41C3
:101F1000002B15DC002B46D02000290000F026F90C
:101F200002B080BCB846F0BDA642EBD9002600271F
:101F300000F0DEF832003B00121A8B41002BE9DD85
:101F400000F0D6F832003B00121A8B41002B0ADB5E
:101F500000230193164B3200009316483B00FFF715
:101F6000B5FE0130D8D000233900B0469C46124A55
:101F70001248536A994204D8966A4645CCD299428F
:101F8000CAD10668EFF3108772B63368002BFCD015
:101F9000BFF35F8F0368BFF35F8F66461E6087F3F2
:101FA000108820BFE5E7002AB6D0C9E7FFFFFF7F12
:101FB000E9170010B011002000400540F02903206F
:101FC000F0B557464E46DE464546E0B506000F00E2
:101FD00085B0EFF3058399468B46002B12D0384924
:101FE00000204B6ABB4206D38A6ADB1B591E8B4119
:101FF000B2424041184305B0F0BCBB46B246A946C8
:10200000A046F0BD2F4B9A46DB68984653461B7896
:102010004046039300F064F84246039B04000433F7
:102020009B009B580D001B1A39003000001BA94172
:10203000894510DC0DD020BF214A0020536A5B4542
:10204000D9D3926ADB1B591E8B41B24240411843DF
:10205000D1E78342EFD900F04BF832003B00121A6F
:102060008B41002B1ADB00230193174B32000093A6
:1020700050463B00FFF72AFE011E0FDD104B5A6A47
:102080005A451BD39B6AB34216D35046FFF776FEE0
:102090000B4A0020536A5B45ADD3D2E7084A0020C3
:1020A000536A5B45A7D30020926ADB1BB2424041D2
:1020B0005A1E934118439EE75A45E6D120BFE4E7F4
:1020C00000400540B0110020E917001010B5024A89
:1020D0000248FEF7ADFF10BD088C0110042400205B
:1020E0000300416A0A00986A596A8A42FAD1704725
:1020F000034B596A0A00986A596A9142FAD17047AB
:102100000040054070B504000D00174A536A1900DD
:10211000966A536A8B42FAD13000190024184D4157
:10212000AB4216D813D0104B2A005B6A9D4203D9EC
:102130000D494B6A9342FCD3934207D10A4A02E00D
:10214000516A994202D1916AA142F9D370BDA64267
:10215000E9D9054B5B6A1C005A1CEFD0012201240F
:102160006442E5175242E3E700400540064A536ADD
:102170009942FCD807D1044B02E05A6A914202D13D
:102180009A6A9042F9D8704700400540F8B50400BB
:1021900006200D0000F078F9002844D0374B38496C
:1021A000E3185A1E93418022120494465B429B0D11
:1021B000344A9B0563441360334A136018000A686D
:1021C0009043FBD12D4B314AE31859424B418021BA
:1021D0005B0049000620995200F056F92900C00022
:1021E00000F0B2FB0130C3091ED140270122626218
:1021F000A362266BF30722D4E36A254B0620E51879
:1022000000232B60266300F03FF93900800000F0C6
:102210009BFB7023E26A5A400E3313402B601D4B28
:1022200023630323A364F8BD1B4A93421ED90023F2
:102230001A4A1B4F6262A362266BF307DCD5194B67
:10224000144AE3181A60656AA36A0620AD01ED1806
:1022500000F01AF9144900F077FBAD0201002800E4
:1022600000F072FB0021FFF74DFFC5E74006800E2E
:102270009F011A003F180300B9E7C0460080FCBF69
:1022800008C0004000E0004000F00040382A032071
:102290002C10000001030000FEFF0000FFFF000003
:1022A000C0FF3F00303000004E0E0000F8B5DE46A3
:1022B0004E4657464546E0B58B4605000A9918003C
:1022C000160000F041FB0A9B6C001F02324B6419A0
:1022D0009C46A4006444636881469F4200D96760BD
:1022E0002B1FDBB29846012B30D9C02380229B01E3
:1022F000E31812011A60294BAD0059599A4600297A
:102300001BD17301E026226853401E4080234246C1
:102310005B01E3181E60012A30D9802380229B01D3
:10232000E31812011A6053464A4667605A51F0BCDE
:10233000BB46B246A946A046F8BD586900F004FB6A
:10234000013043001B18033BFDD2DAE75B46012B4B
:10235000CBD1C02303229B01E3181A60023AA36881
:102360001A42FCD07301E0262268AD0053401E40A3
:1023700080230A4A5B019246E3181E605A46216890
:10238000514003220A401A6001225B469A40A3682A
:102390001A42FCD0C1E7C046008000400C24002057
:1023A000F0B546464F46D646C0B51F00344B4400F4
:1023B0009C462418A4006444636888461600FF2BDA
:1023C00002D880235B006360031FDBB29A46012BB7
:1023D00030D9C02380229B01E31812011A60294BD7
:1023E00085005959994600291BD17301E0262268BE
:1023F00053401E40802352465B01E3181E60012AB1
:1024000030D9802380229B01E31812011A608023B7
:102410005B0063604B465F51E0BCBA46B146A846DC
:10242000F0BD586900F090FA013043001B18033BDF
:10243000FDD2DAE74346012BCBD1C02303229B0117
:10244000E3181A60023AA3681A42FCD07301E0262E
:102450002268850053401E4080230A4A5B01914652
:10246000E3181E6042462168514003220A401A6068
:10247000012342469340A2681342FCD0C1E7C04604
:10248000008000400C240020014B8000C0587047A1
:102490000C240020F8B5040021481E0017000D0090
:1024A00000F052FA0100380000F04EFA069B3604A4
:1024B0001B031E432368002B20DB1A4B1A49E31829
:1024C0005A1E93418022920194465B421B0B174A8D
:1024D0001B0363441360164A13601F000A68974386
:1024E000FBD1144B2560E2182123A0601360236800
:1024F000002BFCDA0823E6601360F8BD3F23226856
:102500001340AB42D9D1A3681B051B0D8342D4D124
:10251000EE22E368D2021340B342CED1EDE7C046CB
:10252000001BB7000040FDBF08C0004000E00040B5
:1025300000F000400430000010B580241C4BE4057E
:102540001C6000281AD001231A4C18431A4BDC6176
:102550001A4C44401C62596298628021144BC90590
:102560001960174817490860E021C9041960002A5A
:1025700007D18022144B12061A6010BD0E4BD86191
:10258000EBE753019B1A9B009A18802312015B040E
:102590009A4209D213000D490B60074B5A60802202
:1025A000094BD2051A60E8E7094B1A00F3E7C04669
:1025B00000B00540D3C007B0008005402D3FF84F64
:1025C000FCFF01000820014000A005400C8F022004
:1025D000FFFFFF008023024A9B000B43D36270473A
:1025E00000800540002310B50100988A1B8B984796
:1025F00010BDC046162310B50100188802331B8891
:10260000984710BDF8B54746CE4680B50F1E18D086
:1026100014239946043304000025012698464B46AE
:102620001888434621681B88984701C4431E984177
:1026300001350640AF42F2D13000C0BCB946B046C9
:10264000F8BD0126F8E7C046002370B504000D0070
:10265000988A05491B8B984703000020002C01DB5A
:102660000130A0402900984755420000AA23064A9D
:102670001B0113608D235B00D3600449044B196078
:102680005368002BFCDA70470040024000B0FA00AB
:10269000006002407047C04610B50148FEF79AFC42
:1026A0002C8C011070B5074D074EB54209D200249D
:1026B000013E761BB60808CD984723000134B3428B
:1026C000F9D170BD308501106C850110054B064AAB
:1026D00006491A60064A074B1A6010000B689843B7
:1026E000FBD1704700E00040BFCDFBFE08C00040BA
:1026F000FE7F3C0000F00040044BDB6C002B03D15C
:102700008022034BD2021A607047C046000011506D
:102710004C201150044A054B1A60054A1368DB012E
:102720008033FBD17047C046FFFFFF0100F000403F
:1027300008C000404022034B9A675A671A67DA665E
:102740007047C04600F0014010B5FEF711FD10BD06
:10275000F8B52749274C284D641AA6103200302EB0
:1027600000D930222800920000F078FDBC2C3BD824
:1027700030202F232C196407204A801BE40F9B1B59
:10278000052B16D93700002C02D0B300771CEA5075
:10279000001B33199B004108EB18C900C9181A60C7
:1027A0005A6008339942FAD1012303421CD098435E
:1027B000C619B300EA50731C2F2E15D09B00EA50A7
:1027C000B31C2E2E10D09B00EA50F31C2D2E0BD0E4
:1027D0009B00EA50331D2C2E06D09B00EA50731D3F
:1027E0002B2E01D09B00EA50054B9D60F8BDC046E2
:1027F00000010010C001001000000020C101001005
:1028000000ED00E0002310B5294C82B0A367FFF76C
:102810002DFF0122274B1A60636C012BFCD1032290
:10282000254B1A60224A936B012BFCD10133009394
:102830000121224A22480433FFF72CFE05230121FF
:102840000093204A2048FFF725FE002202210420A1
:102850001E4BFFF7A5FD0022012105201C4BFFF7B1
:102860009FFD0022002107201A4BFFF799FD00224F
:1028700000210820174BFFF793FD8023DB00009316
:10288000002200210920134BFFF710FD0022104BFE
:1028900000210620FFF784FD0420FFF7F5FD0E4917
:1028A00000F052F801000020FFF794FE02B010BDC6
:1028B000008000403CB0004030B00040002F68591C
:1028C00000800240008C864700C00240001BB70019
:1028D00040597307006CDC0240420F00014804219C
:1028E000014B1847D011002005260010014B9B68B2
:1028F00018470000D0110020124A936F9B0815D290
:102900009066D166002905D0FFE7FFE7FFE7516F2A
:10291000106F704704B580210906C2175140002886
:1029200000D0C84315F0B4FD002104BDF0B5146E0D
:10293000556E576F166FFFF7E3FF146655665767BE
:102940001667F0BD000000D0114A936F9B0813D2A8
:1029500010665166002905D0FFE7FFE7FFE7516FDA
:10296000106F704704B5002801D00020C04315F057
:102970008FFD002104BDC046F0B5146E556E576F33
:10298000166FFFF7E5FF1466556657671667F0BDCB
:10299000000000D094464A4A926F9208624601D2E3
:1029A00028E0C046F0B5464E346E756E776F366FD0
:1029B00000F020F89446424A146655665767166739
:1029C0006246F0BD94463E4A926F9208624601D23A
:1029D00054E0C046F0B53A4E346E756E776F366F80
:1029E00000F04CF89446364A1466556657671667E9
:1029F0006246F0BD002B24DB11D000293EDA00B581
:102A0000C943404200D1013100F038F8C943404287
:102A100000D10131DB43524200D1013300BD002A15
:102A2000EBD1002801D1002905D00020C90FC9072A
:102A300001D1C043410800B515F01AFD0022002362
:102A400000BD00B500290ADBDB43524200D101334F
:102A500000F014F8C943404200D1013100BDC94320
:102A6000404200D10131DB43524200D1013300F03A
:102A700005F8DB43524200D1013300BD002923D1C8
:102A8000002B18D1002A0CD0BC460D4F38667A6650
:102A900000210023FFE7FFE7FFE77A6F386F674603
:102AA0007047002801D00748010000B515F0E0FC90
:102AB0000022002300BD02000B000020002170470F
:102AC000000000D0FFFFFFFF002B00D0BFE0130C81
:102AD00028D1002AE7D080B4114F39667A66FFE723
:102AE000FFE730B4040C7B6F396F1B0423433B6654
:102AF0007A66FFE7FFE7FFE7C04684B27B6F3D6F72
:102B00001B0423433B667A66FFE7FFE7C0460023CA
:102B10002C042D0C7A6F386F00196941B0BC7047D6
:102B2000000000D0F0B594460025140E01D1120229
:102B30000835140F01D112010435940F01D1920010
:102B40000235D40F01D152000135D40B0134254F89
:102B50007C66254C3C660E0C93B2FFE7FFE7FFE76F
:102B60003C6F6643360C7703BE467343DF0B5B0452
:102B7000C01AB941130C7343DB18C91ACE08664357
:102B8000360CB64493B273431F0F1B01C01AB941F0
:102B9000130C73431F0B1B05C01AB941860D8F021E
:102BA0003E436643360C092D24DB520A7243801AD9
:102BB0007703460A6643360C16235B1BDE40DF4074
:102BC000BF1964466643821B704604350633010014
:102BD000D940A840C01900D30131A24206D2002337
:102BE000F0BD0000000000D0FFFFFFFF121B01300E
:102BF000F3D3F1E709277F1BFE406446A2B272437C
:102C0000801A00D20139220C7243130C1204821A6A
:102C100099410B007046043513370100F940A84074
:102C2000801900D30131002B02D1A2420AD2F0BD9B
:102C3000013000D30131121BFAD2013BF8D1A2427C
:102C400000D2F0BD013000D30131121BF7E7F0B51F
:102C50001C0C00D080E00CB400251C0A04D11B021F
:102C6000160E3343120208351C0B04D11B01160F3C
:102C70003343120104359C0B04D19B00960F334360
:102C800092000235DC0B02D192185B4101351C0029
:102C9000971864410134464F7C66464C3C660E0CE6
:102CA000FFE7FFE7FFE7C0463C6F6643360C77035C
:102CB000BE4697B27743C01B00D20139C01B00D279
:102CC00001399FB27743C91BC91B170C77437E0498
:102CD000FF0B801BB941CE086643360C0C2D33DB4D
:102CE000B644120B1F053A431B0B97B27743C01B28
:102CF00000D201399FB27743C91B170C77433E04BA
:102D00003F0C801BB941860D8F023E436643292745
:102D10007F1BFE400C3D7746AF40BF1930BCA2B2CE
:102D2000ABB272437343801A9941220C7243130C65
:102D30001204801A994102000B000137001BA941BF
:102D4000F9D2781E0021F0BD0C277F1BFE4077468C
:102D50007F0BAF40FF19E0E700245D1C07D0144F44
:102D60007D663966FFE7FFE7FFE7FFE73C6F95B257
:102D70009EB265436643401BB141150C1E0C654372
:102D8000664336042F0C3E432D04401BB14199424B
:102D900004D202000B0020000021F0BD01D19042BE
:102DA000F7D3801A994101349942F2D3F6E7000033
:102DB000000000D0FFFFFFFF48404140484018B4EA
:102DC000134B5B68019308BD18B4114B1B6801934A
:102DD00008BD94460F4A926F920805D2624618B415
:102DE0000B4BDB68019308BD0A4AF0B5146E556EB3
:102DF000576F166F6246FFF7F2FF064A1466556674
:102E000057671667F0BD18B4014B9B68019308BD66
:102E1000D0190020000000D0FFB550404240504083
:102E200059404B40594000E0FFB5154F4C00640D30
:102E300003D0BC4204D10C0314D80020090D0905AD
:102E40005C00640D03D0BC4204D11C030AD80022EC
:102E50001B0D1B0501264B4009D44B4003D58B426B
:102E600000D18242FFBD9942FCD19042FFBD0B438D
:102E7000DB1803431343F5D0C9434918FFBD0000D5
:102E8000FF07000000B5FFF7CFFF804100BDC0463F
:102E900000B5FFF7C9FF01D9002000BD012000BD2A
:102EA00000B5FFF7B9FF01D9002000BD012000BD2A
:102EB00000B5FFF7B1FF804100BD012040054A0089
:102EC000121804D85A00121801D8002070470120A7
:102ED000704700000021002805D17047C117484005
:102EE000401AFAD0C90713B5064B1B6898470CBCAB
:102EF000441CA2401005120B0349091B0905194384
:102F0000114310BDEC2803201F04000010B54C0035
:102F1000620D8023D218DB00D21A5B057E2A10DDF9
:102F20009E3A13DACC170903490819435242D1409B
:102F3000640001341532202A05DAD040084360438A
:102F400010BD002010BD0846604310BDC80FC0185A
:102F5000013810BD18B4024B5B6A019308BD000034
:102F6000D019002018B4024BDB6F019308BD00009C
:102F7000D019002010B50148FEF72CF8388C01104C
:102F8000132370B51D78012D19D014DD1D48FFF7EE
:102F900031FB06001C48FFF72DFB1C4C8022310042
:102FA000200000F05BF9022D06D01948FFF71AFB4C
:102FB000184B186070BD154C174BA364F5E7174B01
:102FC000124C23606360A360E36023616361A361CB
:102FD000E36123626362A362E36223636363A363C7
:102FE000E36323646364A364E36423656365A365A7
:102FF000E36523666366A366E36623676367A36787
:10300000E367D9E75344000053460000D01900207D
:103010004C330000EC28032021300010752F0010E5
:1030200007B5604601880A0A0230DF2AFAD1C9B220
:10303000820804D3028840880004104300E000683E
:10304000014A5050039007BDD0190020514343431B
:10305000C9188C46110C83B24B4310B4040C614365
:1030600092B280B2504362431C041B0C001910BC86
:1030700059411304120CC0185141614470470000BB
:103080004840414048400E4B5B6818470C4B1B685A
:1030900018470C4A936F9B0802D2094BDB6818470C
:1030A000F0B5146E556E576F166FFFF7F6FF054AB1
:1030B0001466556657671667F0BD014B9B68184745
:1030C000F0280320000000D007B5484041404840A8
:1030D00001E0C04607B54200120E03D0FF2A03D11B
:1030E000420218D8C00DC0054A00120E03D0FF2AB4
:1030F00003D14A020FD8C90DC9050122414005D4A8
:10310000414001D5814207BD884207BD01434918AE
:1031100001D0C043001807BD00B5FFF7DBFF01D0A9
:10312000002000BD012000BD00B5FFF7D3FF8041A6
:1031300000BDC04600B5FFF7C7FF01D9002000BDA4
:10314000012000BD00B5FFF7BFFF804100BD0000BA
:10315000C10FC90700D54042002817D0F44603B478
:103160000B4B1B68984706BC81409E38404280311B
:1031700007D20B0607D04900490AC005104308438F
:1031800060470130F8E7490A8902F5E77047000017
:10319000EC280320014BDB6F18470000F0280320C8
:1031A000014B9B6D18470000F028032010B5014823
:1031B000FDF710FF38870110132310B510481C7855
:1031C000FFF718FA0100012C0AD003DD80220D4818
:1031D00000F044F80C48FFF705FA0C4B186010BDDE
:1031E000084C5422200000F039F8220008498032AF
:1031F0002368002B00D1216004349442F8D1E9E720
:1032000053460000F02803204C330000EC28032034
:10321000AD31001010B5040014F084F8002804D07B
:10322000034B04199C4200D810BD0248FDF7D2FEA2
:1032300000000420508C011010B514F07DF810BD72
:1032400001480421014B1847E01100200526001019
:10325000014B1B6818470000E0110020014B5B6820
:1032600018470000E01100209A4200D288547047AD
:103270007047C046F8B55746DE464E464546E0B56F
:1032800099460A9B07009A460D9B884693460B9CDD
:103290009B073BD10C9B9C423DD21E1B0B941500FF
:1032A0000C005E442A004B46013521002020B8471F
:1032B000B542F7D1A0460B9C002C20D045463619CC
:1032C0005346321B013C185D29004B46B847002C81
:1032D000F6D12B00350098460D9B9B070FD55B461A
:1032E000EC1A0C9BA3420AD9464698462A004B4644
:1032F000310020200134B84701354445F6D3280079
:10330000F0BCBB46B246A946A046F8BD1600150063
:10331000002CD3D1E0E716001500002CCED1EEE74B
:10332000F0B54546DE4657464E46E0B585B09C466C
:1033300010AB1B78149F934698460F9C129E139DCA
:10334000BB074CD4002D42D1B44248D201233B40AC
:1033500099460E9B013B9A46302304E052460134C5
:103360001355A64201D9202CF8D14B46002B00D191
:1033700083E00E9B013B99463023A54205D82EE001
:103380004A4601341355AC4229D0202CF8D1FB0613
:103390000CD57B0554D4A64263D0A54261D0119BC5
:1033A000102B50D0022B57D0202C32D12023019348
:1033B0000E9B5A460093039763460295FFF75AFF08
:1033C00005B0F0BCBB46B246A946A046F0BD0123FD
:1033D0003B40994601233B422AD1B442B9D3FB0674
:1033E0001CD57B05DBD4002CD5D1119B102B5BD0D9
:1033F000119B022B6BD0302301240E9A137043468D
:10340000002B10D17B073ED52B260E9A631C165538
:10341000CDE72300013430260E9AD654202CC5D097
:103420004346002BEED02D260E9A631C1655BEE7A0
:103430004346002B2FD0013DB44200D289E798E7E4
:10344000119B102BB2D1BB0637D5202CAED0582300
:103450000E9A13550134A7E7202CA7D0230001347E
:1034600007E0631E012CC0D0119A102A31D0022A25
:10347000D1D162260E9AD65496E7FB06CED57B05AF
:1034800000D488E78BE723003E0790D520260E9ACC
:10349000013316558BE70C233B405A1E9341ED1A1E
:1034A000B44200D255E764E7BB060ED478230E9AE7
:1034B0000224137030235370A1E7202C00D175E74C
:1034C00078230E9A135501346EE75823EFE76033E3
:1034D000EDE70E9AA61E91464E44BA0602D5582232
:1034E000327098E77822327095E7C04610B5002810
:1034F00000D110BD01F020FDFBE7C0460B0010B568
:10350000002802D049681B68984710BDF0B557469F
:10351000DE464E464546E0B595B083460F009246DE
:1035200098461E9A1F9B10001900209EFFF7C5FCAD
:10353000002800D0EAE11E981F990122C54B524293
:10354000FFF7A0FC002800D014E11E981F9901226B
:10355000C14B5242FFF7ACFC002800D0E9E01E98B6
:103560001F990022BD4BFFF7A3FC002800D0C8E044
:103570001E981F990022BA4BFFF784FC002800D048
:10358000BFE01E981F9900220023FFF77BFC002854
:1035900000D0E4E000230B93229B5B0500D40626B9
:1035A0000024302307E0172106AA013452181355CE
:1035B000013E202C01D0092EF5D81E981F99FFF747
:1035C000A5FCA84BF2009B181A685B6805000892DE
:1035D0000993FFF783FC02000B001E981F99FFF769
:1035E000EEFB089A099BFFF70EFC06900791FFF788
:1035F000B1FC8146FFF76EFC02000B0006980799AC
:10360000FFF7DDFB0022984B06900791FFF750FC77
:10361000002800D10DE101239C46E1444846FFF714
:1036200059FC02000B0008980999FFF731FC0028AB
:1036300002D0002399460135002E00D1D9E006952D
:103640004D46B94614E006AA944617230A2163445E
:10365000280001341F19FFF777F93031397028003D
:103660000A21013EFFF770F9092D00D817E1050086
:10367000202CE8D14F46069D20240CAE06AA172325
:103680009446634499465B46B34606930FE04B4627
:1036900028000A210134E618FFF72EF930312800FE
:1036A00031700A21FFF728F9051E00D1E4E0202C33
:1036B000EDD1069B5E469B460323229A1340012BC5
:1036C00018D1219B002B15D00B9B002B00D1FDE0C6
:1036D000219B013B2193202B0CD93023219A07E019
:1036E000172006A9013409180B55944200D3CCE0E9
:1036F000202CF5D1229B01940393219B00960293E9
:1037000022E0229B52460493219B390003935846A2
:103710001E9B1F9C029600930194434600F04AF9B9
:103720000400200015B0F0BCBB46B246A946A04636
:10373000F0BD229B5B070FD403224C4B22990192D0
:10374000039121990093029143465246390058460D
:10375000FFF790FD0400E4E70422454BEEE71E9AD4
:103760001F9B00200021FFF72AFB01231E901F91C1
:103770000B9311E7229B54469B0711D1219B042BED
:103780000ED9219B55469C465E46043C64442A0063
:103790004346013539002020B047A542F7D1B34652
:1037A000344D26002B1F99465B46A3461C00320071
:1037B000E87843463900013DA04701364D45F6D132
:1037C00023005C469B46229B04349B07A9D55346A5
:1037D000219AE31A9A42A4D95E4615002200434674
:1037E00039002020B04753460134E31A9D42F5D8F2
:1037F00097E72800FFF772FB02000B001E981F9945
:10380000FFF7DDFA0022184B06900791FFF73AFB0D
:103810000CAE002800D031E7069807990022124B21
:10382000FFF746FB002800D028E7012301359D4320
:1038300024E70022069807990B4BFFF723FB00288B
:1038400000D0F9E64B46002B5CD101239C46E144B5
:10385000F2E6C046FFFFEFFFFFFFEF7F65CDCD41F2
:1038600065CDCDC180A901100000E03FAC8C0110F6
:10387000A48C0110B48C0110069B5E469B4603236A
:10388000229A1340012B00D181E0202C00D131E796
:103890000B9B002B27D02D23335501342AE74F46AD
:1038A000069D202C00D1E7E63022331907E01720CF
:1038B00006A9013409180A55202C00D1DCE6A342E0
:1038C000F5D12E220CAE0134F254D7E60C23229A05
:1038D000134257D0219B013B2193A34200D9FCE620
:1038E000202C00D106E7229B5B0703D52B23335501
:1038F0000134FFE6229B1B0700D4FBE6202333554F
:103900000134F7E6DB0700D496E69EE7229B554696
:103910009B0711D1219B032B0ED9219B54469C461A
:103920005E46033D654422004346013439002020B1
:10393000B047AC42F7D1B346B9465F461C4EEC1CCB
:103940002A00B078434649460135B847013EAC42AB
:10395000F6D1229BBB464F469B0700D4E1E6534677
:10396000219AE31A9A4200D8DBE65E46150022004F
:10397000434639002020B04753460134E31AAB4296
:10398000F5D3CEE6219BA34200D9A6E6B2E6219B61
:10399000002B00D179E70B9B002B97D0219B013B9B
:1039A00021939C4200D298E6202C00D073E7A1E638
:1039B000B08C0110F0B5DE4657464E464546E0B5A0
:1039C00099B081468B4692469846229A239B1000D6
:1039D0001900FFF772FA002800D0CAE02298239954
:1039E0000122824B5242FFF763FA002800D0C0E068
:1039F0002298239901227E4B5242FFF743FA002876
:103A000000D0B6E02298239900220023FFF73AFA6B
:103A1000002800D0C9E1229B239C089309940898B0
:103A200009998023269ADB001A400D928022269C59
:103A30001201144022000B94269C07000E001C4229
:103A400000D0ADE00B00034300D0D5E0002A00D049
:103A50000AE2220006332493022313400C9302232C
:103A6000134200D002E2259B042B00D20FE2043B5C
:103A70000B93002304250A93002222982399002304
:103A8000FFF700FA002800D003E25A4B269A1340B1
:103A900004930B9B0393249B0293089B099C009324
:103AA00001945946434652464846FFF72FFD02000F
:103AB0002020269B1F27034059424B415B42184060
:103AC000531C0893594643464530C8470A9AD317B2
:103AD000D4185C40D30F0A936B1E0B9308AB9C4623
:103AE0000025674401E0202D0FD020000A21FEF7B9
:103AF0002BFF01357E193031317020000A21FEF78D
:103B000023FF26000400092EEDD8052306930B9B06
:103B100059460593002304930A3303930A9B4846AE
:103B2000029310AB0093089A43460195FFF7F8FB08
:103B30000C9B002B2DD05346C41A259BA34228D999
:103B40004D465F4681461E00534639001A19202013
:103B500043460134A847A642F6D85346484625991D
:103B6000C21A01320023914200D386E101301818B5
:103B70000FE0269B0493259B0393249B0293229B97
:103B8000239C009301944346524659464846FFF70A
:103B9000BDFC19B0F0BCBB46B246A946A046F0BD7C
:103BA00001432BD10B9B2200002B00D154E70023B3
:103BB0000A93249B0A9A0024934200DD85E122980F
:103BC000239900220023FFF75DF9002800D035E19A
:103BD000269B084A02941A408023DB001343049377
:103BE000259B0393089B099CCBE7C046FFFFEF7F13
:103BF000FFFFEFFFFFF7FFFF06232493B44B700096
:103C00009C46400D6044FFF769F9B24AB24BFFF79A
:103C1000FAF8B24AB24BFFF7D7F83603B14B360B7E
:103C2000334304000D00380019000022AE4BFFF7AB
:103C3000C6F8AE4AAE4BFFF7E6F802000B002000D4
:103C40002900FFF7C1F8FFF761F90A90FFF746F97D
:103C5000A84AA94B04000D00FFF7D5F80022A74B96
:103C6000FFF7B2F8FFF752F9A54A0600A54B20006E
:103C70002900FFF7C8F8040030000D000C96FFF78C
:103C80002DF9A14AA14BFFF7BEF802000B0020005E
:103C90002900FFF794F802000B0006000F00FFF761
:103CA000B2F8320004000D003B0030003900FFF78D
:103CB0008BF800220E900F91954B20002900FFF702
:103CC00088F80022934BFFF77FF802000B002000DA
:103CD0002900FFF77EF800228F4BFFF775F80200EE
:103CE0000B0020002900FFF774F80D00802104006C
:103CF00032003B000020C905FFF761F802000B000D
:103D000020002900FFF760F802000B000E980F99C1
:103D1000FFF75FF80022734BFFF756F87F4B0C9CC0
:103D20009C46644400222305FFF76DF806000F004F
:103D300002000B0008980999FFF7A4F800280AD0A0
:103D40000A9B3000013B39000A930022714BFFF7B8
:103D500040F806000F000A9A330063323900C62A81
:103D600012D802222698042510400B9A0C90002AA3
:103D700025D1259B042B05D9002800D0A1E0259B47
:103D8000043B0B93042541E00222269810400B9A35
:103D90000C90002A12D1259B052B76D9002872D1D0
:103DA000259B0525053B0B9334E0802212069446A3
:103DB000229B0893239B6344099330E605250B431C
:103DC00000D1F6E608980999554A564BFFF768F86E
:103DD000002808D0089809990022534BFFF752F8A1
:103DE000002800D0E5E6249B002B1CD00D9B002B67
:103DF00019D0249B013B2493259BAB4204D90C9BF7
:103E0000002B5AD002230C9300230B930A9B002B08
:103E100000D131E60898099932003B00FEF7D9FF3E
:103E20000890099128E6259BAB42EDD90C9B002B0D
:103E300043D000230B9302330C93E7E78020269BAB
:103E40003A4A00061A40802384460294089C099D41
:103E50002900DB0013430493259B61442200039354
:103E60000B00009201938EE60524A8E600230B9335
:103E70000A93023304250C93FEE553468C46013B1E
:103E800063441B1A72E602230C930525C2E7042340
:103E9000EDE58020089E099F000639008446269A99
:103EA000224B6144134004930B9B32000393249BE9
:103EB00002930B0000920193F3E5259B5B1B0B9390
:103EC000A4E7022304250C93A0E79C1A013C76E6A4
:103ED00001FCFFFFFB799F501344D33FB3C8608BB5
:103EE000288AC63F0000F03F0000F83F61436F633F
:103EF000A787D23F71A379094F930A400000E03FA2
:103F00001655B5BBB16B0240EF39FAFE422EE63FC3
:103F100000002C400000244000001840FF03000077
:103F20002D431CEBE2361A3F80842E41FFF7FFFF42
:103F3000F0B5DE4657464E464546E0B5A5B01E00F4
:103F40002E9B92460C93CD4ACD4B80468B461A60F1
:103F5000002900D1EAE1002330789946002800D1F9
:103F6000ECE1C84B4C460B93C74B454657460E9366
:103F70000AE0631C984622003B005946A847444685
:103F80003078002800D187E001362528F1D10823B8
:103F90009A46043B9946023B9846013B00229C46C8
:103FA0000D943078711C0300203BDBB2102B03D83A
:103FB0000B9C9B00E3589F460300303B89460D9CB9
:103FC000092B3AD9002398462A2800D1C1E00023C2
:103FD0009A462E284BD00300683BDBB2122B1ED82A
:103FE0000E999B00CB589F4663460E001A43D8E7B4
:103FF00043460E001A43D4E74B460E001A43D0E75F
:1040000010230E001A43CCE753460E001A43C8E7AC
:1040100080235B001A43FF3B9C467078E1444E4688
:1040200067284FD82428A4D90300253BDBB2422BB4
:104030009FD896499B00CB589F46002394461E006C
:1040400000E00131B3009B195B001E180878303E78
:104050000300303B092BF4D90123624689469C4674
:104060000023B0469A460E00E1442E28B3D13021F9
:10407000802049428C46C000024370784B468444FD
:104080006146092900D86CE12A2800D17AE1012390
:104090009C464E46E1449EE7A146A846BA46CA451C
:1040A00003D801235B425344994653464A46594636
:1040B0000020C047200025B0F0BCBB46B246A94650
:1040C000A046F0BD0300693BDBB20D930F2B00D976
:1040D0004FE7012199408C466D49894661464B4620
:1040E00019400F91634649460B4200D028E10D9BD1
:1040F0000A2B3AD0072B00D03BE70C9B190008C9CC
:104100008846002B00D14BE121200243914614A99F
:104110008C461F220F2162448C4651460D950C910E
:10412000A24615000F9902E020290CD01300644626
:104130001C4020003730092C00D807380131685462
:104140001A090F2BF0D80C9B54460D9D9A460F91DF
:1041500033E10C9B02CB8846002947DB0C930123FB
:104160009C4670784E46E14431E70C9B02CB149399
:104170005346002B00D138E19C4608780B000C9088
:104180008C44002801D100F098FC89466146944691
:1041900003E05A780133002A01D08B42F9D1494615
:1041A00062465B1A0C900F93530500D520E1022361
:1041B000180010400D90134200D1CBE30D930B1B60
:1041C000B1469A465E460C9822003B003100A84753
:1041D00053460134185D0028F6D1B3464E460D9B78
:1041E000002B00D0C7E1149B0C93C9E60C9301236C
:1041F0009C46283849420243884670784E46E1443E
:10420000E5E670786C2800D17FE180235B001A43DB
:10421000FF3B9C46E14402E780239B001A430123B5
:104220009C467078E144FAE67078682800D173E122
:1042300080231A437F3B9C46E144F0E6672800D187
:1042400003E1472800D15AE1452800D15AE1049200
:10425000072142460C9B0392073352468B431900B9
:1042600002920CC92800009201930C9122003B009D
:104270005946FFF79FFB040082E6C046313F00101D
:10428000088F0220E0A7011024A8011070A80110D7
:1042900041900000462800D1DBE00492072142460D
:1042A0000C9B0392073352468B43190002920CC9B0
:1042B0002800009201930C9122003B005946FFF721
:1042C00025F904005CE6631C984622003B00594631
:1042D0002520A847444653E60C9B04330D93631CEA
:1042E0009946920700D422E10C9B22001878594687
:1042F0003B00A84743464444012B00D885E23300E5
:10430000B8462E005F4625004C469946220043469B
:10431000013439002020B047AC42F7D12C00BB4615
:10432000350047464E460D9B0C9329E6DB4B307813
:10433000984600239946002800D012E60024AEE6F5
:104340006F2800D188E000D80BE31023782800D133
:10435000CFE09A430A239C4600230F930A330D9320
:1043600080E05646B1008919490001330E181878CB
:10437000303E010030390929F4D9B2461E0001331C
:10438000994628E60C9B023602CB8A46C943504622
:10439000C917084082460C933078731C99461AE678
:1043A00010231000984311331843814680201300D6
:1043B000C0000340024200D1A9E64B460693082301
:1043C00005935346049310230393002302930F9BFA
:1043D000220001931CAB009359463B002800FEF7D6
:1043E0009FFF434604000C93CAE501235B42C3E6EA
:1043F0000F9B534501D953460F93022318001040D9
:104400000D90134200D1B7E10D93D1460B1B9A4694
:104410003300A1442E0022004D460C98B9465F4659
:104420009B4608E04B463900541CB0475346185D84
:10443000002877D022009542F4D15B46BB464F4618
:10444000A94635004C461E00C9E680231B011A43CD
:10445000FDE620231A4320E708239C4600230F9300
:1044600008330D9380231100DB0019401A4200D15C
:1044700016E10D239A431000802302009B001A408E
:104480001492184200D0C2E1802302005B001A405F
:1044900091460C9A04320F92184200D0B7E24306BC
:1044A00000D59FE1030600D419E30C9B1B880993F8
:1044B000002B00D0FCE110339843002900D1F7E134
:1044C0000023994643460593534604930D9B06905B
:1044D00003930023D2E0582808D0622867D1022332
:1044E0009C4600230F9302330D93BBE720231A430E
:1044F000103B9C4600230F9310330D93B2E78023AB
:104500001B011A4320231A43A1E6C0239B001A4330
:10451000F31C9946B07882E5C0231A43F31C9946F0
:10452000B0787CE535005E46BB464F4657E64346CD
:10453000012B00D863E1631E43449A463300B94619
:104540002E005F4655469B46A24622004B4601344C
:1045500039002020B047AC42F7D135005E46BB465B
:104560004F46A14654460C9B4A46187859463B0094
:104570004444A847D7E6A1460F9B984500D832E6A9
:104580004444E41A3300B8462E005F4625004C46EA
:10459000994622004346013439002020B047AC42FE
:1045A000F7D12C00BB46350047464E461BE680231C
:1045B0001000DB0018401A4200D10FE11121180051
:1045C0008A430D920D9A802311009B0019408C465E
:1045D0001A4269D1802311005B00194089460C9969
:1045E00004310F911A4200D0CAE113005B0600D5D6
:1045F000F0E013001B0600D459E20C9B00229B5EE6
:10460000D9175A184A4092B2D90F0C91002B00D1F9
:10461000F9E1100014AA944642461F231492524610
:104620006344A84616944D460400B946B2461F009E
:10463000159201E0202D0FD020000A21FEF784F909
:1046400001357E193031317020000A21FEF77CF9E6
:1046500026000400092EEDD8149B4F46A946454676
:104660009846159B56469A46169C0D9B06934346C4
:104670000593534604930A2303930C9B02934B46E2
:1046800001931CAB2200009359463B002800FEF723
:1046900047FE0F9B04000C9372E4C0467132001079
:1046A0000C239A431000E7E607220C9B0733934341
:1046B000013294469C4462460C920CCBD90F0F9168
:1046C0001100194300D191E0D91713911291514073
:1046D000109113995940119110981199129A139BA6
:1046E000801A99411090119114AA002394464246D1
:1046F0009946149252461F336344A846B246169414
:104700004E46109C119DB94615921F0001E0202EC7
:1047100010D0200029000A220023FEF753F90136A9
:1047200030322B00BA550D0022000400002BEED1D0
:10473000092AECD8149B1094119545469846159B70
:104740004F46B14656469A46169C0D9B06934346E5
:104750000593534604930A2303930F9B02934B46FE
:1047600001931CAB2200009359463B002800FEF742
:10477000D7FD0400FFF704FC0F9B984500D8C1E16A
:104780008023DB000D9343460F9A1B199B1A994611
:1047900033002E004D46B9465F469B460C912200E1
:1047A0004B46013439002020B047AC42F7D1434694
:1047B0000C9901330F930B7835000C935E46BB4682
:1047C0004F46002B00D10EE50D9B002B00D1F6E4E7
:1047D000002319E60C9B1B781A0015E710239A4357
:1047E0000D92EFE60C9B1B78099361E60023994636
:1047F0000028AAD1002200231092119374E70C9B89
:104800002200187859463B00A8474C468BE50C9A85
:10481000FA3BFF3B07329A430133994691444B469A
:104820000C931368526815921A4306D110329043C4
:1048300000220992002900D081E06122810600D582
:104840004122D2B20A9214AA91460A9A00210A3A47
:10485000149242461792524618925A460991B3460C
:104860001F311E000F9B4944BA4619941A95002423
:10487000674698468946159D16901B920AE030328D
:10488000D2B24B4601341A55A8454AD0202C4AD002
:1048900006000D003A00002330002900FEF792F8D0
:1048A000D2B2092AEBD9149B9C466244D2B2E8E703
:1048B0006123820600D54123DBB20A3B0C934346B9
:1048C00014A91F228C46159353466244A046B24653
:1048D0004C461797A9461700099D0D9E14901693F4
:1048E00008E03033DBB201343B55B5420ED3202C07
:1048F0000CD0050031002800FEF726F8CBB20929BC
:10490000EFD90C9A94466344DBB2ECE7159B4D4615
:10491000A14644469846169B564614989A46179FB9
:10492000D0E5B742B2D9179B57469846189B5E46CA
:104930009A461B9B09949B461698199C1A9D4346C0
:104940000593534604930D9B069003930023029313
:10495000099B05E70F9B984500D914E701330F9396
:104960002DE41023110099430D91692800D0BAE07D
:1049700080231000DB0018401A4200D122E61DE619
:104980000C9B1B68DA0F1100002B00D18CE0DA17AA
:104990009818504014AA914642461F23149252463A
:1049A0004B44A046A946169704006546B2461F0030
:1049B0000C91159201E0202D0FD020000A21FDF767
:1049C000C3FF01357E193031317020000A21FDF717
:1049D000BBFF26000400092EEDD8149B44469846E0
:1049E0000C9BAC461900159B56464D469A46169FA1
:1049F0000D9B0291069343460593534604930A2365
:104A0000039363463CE6002800D02EE602E60C9BAA
:104A10001B689946002B03D110339843002938D1E5
:104A20006123820600D54123DBB20A3B0C93434647
:104A30001693534614A91F228C4617932B006244E9
:104A4000A0464D46B246189799461700149C0D9EF5
:104A5000159008E03033DBB201343B55B5420ED33C
:104A6000202C0CD0050031002800FDF76DFFCBB2E3
:104A70000929EFD90C9A94466344DBB2ECE7169B04
:104A8000149444469846179B56464D469A461598A8
:104A9000189F43460593534604930D9B069003933A
:104AA00000230293149BEBE50028A1D172E70C9B35
:104AB0001B68D9175A184A40A6E580231000DB006E
:104AC00018409C460F901A420FD00220030013405A
:104AD0000F93104219D00023A1460F934CE50C9B75
:104AE0001B680993E4E40A0034E402231800104030
:104AF0000D90134200D03EE54346002B00D042E625
:104B0000FFF771FB01330F937FE463460D93F3E7E7
:104B10000EB4012230B584B007AC08CC064D0100BC
:104B20000094280052420394FFF702FA04B030BC0C
:104B300008BC03B01847C0466932001010B50C001D
:104B400084B00394012402A9029000930348130047
:104B50006242FFF7EDF904B010BDC046FD3400100D
:104B600010B5094A0300146884B0002C08D0012253
:104B700000910648524203A9A047012004B010BD8D
:104B800000F024FA0020F9E7088F0220ED3400102D
:104B900000BEFDE7094A03001068002805D0084957
:104BA000C3188B4207D81360704706480449C318DE
:104BB00010608B42F7D901204042F5E7DC3200203B
:104BC00000000420882A0320030010B5080011000B
:104BD000002B05D1044B1A685B6800F04BF910BD3F
:104BE00001204042FBE7C04678A701100300013BCB
:104BF00010B508001400012B06D801230022210063
:104C000000F0BAF8200010BD01204042FBE7C0468A
:104C1000012040427047C046012040427047C046D4
:104C200010B5FFF7B5FFC04670B5FDF73BFD074D6A
:104C3000074EB54209D20024013E761BB60808CDC6
:104C4000984723000134B342F9D170BD6C8501103F
:104C500074850110030010B5080011001B68984707
:104C600010BDC046F0B5C64600B5437D07000C0038
:104C70001600002B46D0002A17DD0B780A2B24D013
:104C800000239846012E13D001252900635C0135CD
:104C90000A2B26D0B542F8D1464509DCA419013CBF
:104CA00023780D3B5A4253413B7580BCB846F0BD5A
:104CB0004346E018A419F11A013C3B689847237851
:104CC0000D3B5A4253413B75EFE7037D002BD7D193
:104CD00002210F483B689847012EDFD001239846F8
:104CE000D2E7631E5B5C0D2BD4D0884504DA4346C3
:104CF000C91AE0183B689847022105483B68A84656
:104D00009847C7E70368110020009847CDE7C046E1
:104D1000D0A90110F0B5C6460B6806000C0000B51E
:104D2000802B06D05A1C2260E418267180BCB8463D
:104D3000F0BD0F4B1D68002D16D00B1D98460D4F72
:104D400002E02D69002D0FD02B68002BF9D03B68B5
:104D5000002B01D0AB42F4D1280041462268FFF776
:104D600081FF2D69002DEFD101220023DBE7C04632
:104D7000BC320020C8320020F0B54546DE464E4623
:104D80005746E0B583B091461C0080460D00FDF704
:104D9000AFF90023304A12184B41002B02DA0122EE
:104DA0002E4B52422E4908008A4613F099FB070009
:104DB0006B1C03D1404613F05BF90500002C27D093
:104DC000284E294B1C68002C18D04B46002B21D1B3
:104DD000264B994602E02469002C0FD02368002B53
:104DE000F9D04B461B68002B01D09C42F3D1200028
:104DF0002A004146B0472469002CEFD1002F26D16C
:104E0000280003B0F0BCBB46B246A946A046F0BDA0
:104E1000174ED6E7154B99460A239B4602E02469B4
:104E2000002CEBD02368002BF9D04B461B68002BDD
:104E300001D0A342F3D12A0041462000B0476B467F
:104E40005A462000DA71D91D0122B047E7E75046E3
:104E500013F006FBD4E7C04640420F00FFFFFF7F80
:104E600010180020654C0010BC320020C832002011
:104E7000554C0010F8B557464E464546DE46984616
:104E80001A4BE0B59B461A4B07000E0091469A4616
:104E9000184D5B461C68002C03D115E02469002CDA
:104EA00012D02B68002B01D0A342F7D1A368002BAE
:104EB000F4D03100380098470028EFDDF0BCBB4645
:104EC000B246A946A046F8BD53465B6A984508D845
:104ED0005246926A4A4502D302204042EEE7984584
:104EE000FAD101200021FDF70DF9D2E7BC320020F4
:104EF00000400540C83200200A4A1368002B05D143
:104F00000CE01A001B691032002B07D08342F8D145
:104F1000002902D118691060196170470029FCD07E
:104F20001060FAE7BC32002010B500F0ADF900F0D7
:104F3000E9FB012010BDC046F0B5CE46474680B51E
:104F400083B06B460600DD1D2870FDF7D1F8002305
:104F5000194A12184B41002B02DA0122174B524218
:104F600017490800884613F0BBFA164B81461C68A7
:104F7000002C14D0144F02E02469002C0FD02368B9
:104F8000002BF9D03B68002B01D09C42F4D12000CB
:104F900001222900FFF766FE2469002CEFD14B4661
:104FA000002B05D1300003B0C0BCB946B046F0BDFF
:104FB000404613F055FAF5E740420F00FFFFFF7F30
:104FC00010180020BC320020C832002070B5040048
:104FD00013F04EF801230100050001222000FFF725
:104FE000CBFE084B1C68002C06D06368002B05D054
:104FF00098472469002CF8D1280070BD2469002C42
:10500000F3D1F9E7BC320020F0B5CE46474680B573
:10501000A3B004000D00FDF76BF80023274A121817
:105020004B41002B02DA0122254B5242254E300023
:1050300013F056FA00232200019307002B002248A8
:1050400001A9FFF77BFD214B804699461C68019B17
:10505000002B1AD0002C2FD01D4D02E02469002C0B
:105060000FD02368002BF9D02B68002B01D0A3426E
:10507000F4D12000019A02A9FFF7F4FD2469002C65
:10508000EFD14B461C6800230193002C06D06368C7
:10509000002B0BD098472469002CF8D1002F07D1A2
:1050A000404623B0C0BCB946B046F0BD2469ECE729
:1050B000300013F0D5F9F3E70194EFE740420F0019
:1050C000FFFFFF7F10180020154D0010BC3200209C
:1050D000C83200200FB400B583B004A901C9019102
:1050E000FFF792FF03B008BC04B01847F0B50029E1
:1050F00015DD0E4B0D271A680D4B0E4CD3185D4273
:105100006B41451820215B001E5F0478A64207D042
:1051100093691942FCD101301460A842F5D1F0BD69
:1051200093691942FCD11760F2E7C0463C2A03207C
:105130000080FCBF382A0320204B70B504000D1EF0
:105140001E682ADD002010211D4B013C1A6893695E
:10515000194214D1013093691942FCD113682354C8
:105160008542F4D1002E08D050239363516B183B35
:105170000B4014498C4662441360280070BD002E19
:1051800008D050239363516B183B0B400D498C465C
:10519000624413600028F1D10CE0002E0AD05022A6
:1051A000074B1B689A63596B183A0A4005498C46AD
:1051B00063441A6003204042E0E7C046F023002029
:1051C0003C2A032034100000064B10B51B68002B4E
:1051D00006D00021044A12689163044A1068984777
:1051E00010BDC046F02300203C2A0320F8230020F5
:1051F0000822034B19688B691A42FCD17047C046DC
:105200003C2A0320F8B51A4F1A4B3A680500D31808
:1052100058424341184E14331C003368002D02D00D
:10522000002B0FD0F8BD002BFCD00021200095638F
:10523000FBF7BEFF20001149FCF716F9104B356053
:105240001D60EFE70E4B200019600C493560FBF73D
:10525000E7FF01212000FBF7ABFF50223B689A6378
:10526000596B183A0A4007498C4663441A60D9E7DB
:105270003C2A03200080FCBFF0230020C95100100D
:10528000F8230020341000000D4B10B51B780D4B97
:105290000D4C1B780D4B02211B780D4B0020236019
:1052A000FBF7D2FD02210120FBF7CEFDE1212068B2
:1052B0004902FCF76BFF01210648FFF71DFE10BDF8
:1052C00044260510402605103C2A03203C260510E4
:1052D00000400340F01100207047C0460022014BFF
:1052E0001A7070477D2A03204B790020FF2B0BD1C9
:1052F0008B79002B08D1CB79012B05D1082A03D952
:10530000024B8A7809301A707047C0467D2A032004
:105310000120704710B5012913D112495379107932
:1053200009781B0203430020994200D010BD537836
:10533000012B08D0022BF9D1642200210020FDF7B7
:10534000FBF80120F2E7D37891781B021943480A51
:10535000DB0501D4012040427F238A05D20F19408A
:10536000FDF772F97D2A032000487047B8AA0110A2
:1053700070B5050014000120012909D153780020DF
:10538000012B05D1637912791B021343072B00D03F
:1053900070BD21002800024A9F3301F05DFAF7E753
:1053A00010AA01100123037000487047F0A90110F2
:1053B0004B780A781B0213438A7810B512041A43FB
:1053C000CB781B0613439622D200934200D010BD27
:1053D0000022012011004042FDF736F9024B18600F
:1053E000024B19607047C046F4230020FC230020C4
:1053F00010B5024B1878FBF7F9FE10BD7E2A03208A
:10540000154B70B51A68002A22D0EFF3108172B6DE
:1054100010680028FCD0BFF35F8F00200F4A59604E
:1054200010701B68BFF35F8F186081F31088002431
:1054300000250B4E3078FBF7CDFE002804D1002468
:1054400000252900200070BD3078FBF7CFFEF8E77B
:10545000FA240025A400ECE7B4280320802A0320C6
:105460007E2A032070B5040000200E0001F012FB1C
:10547000002834D0002001F023FB00282FD0FCF7B7
:1054800037FE0023174A12184B41002B16DB164D2E
:10549000280013F025F8002821D0002001F0FAFAA6
:1054A00000280FD101200021404200F009FD032413
:1054B0006442280012F0D4FF200070BD01220B4B83
:1054C0005242E4E7002001F0FBFA0028EAD0210074
:1054D0003200002001F0FEFA041EEAD1E7E70324BF
:1054E0006442E9E740420F00F8290320FFFFFF7FF5
:1054F00010B5FCF7FDFD00230D4A12184B41002B9F
:1055000002DA01220B4B52420B4C200012F0E8FF52
:1055100000280CD001200021404200F0D1FC0020E6
:1055200001F01CFB0028F5D1200012F099FF10BDFE
:1055300040420F00FFFFFF7FF8290320F8B5DE4649
:10554000574680B505000C00FCF7D2FD0023364A13
:1055500012184B41002B02DA0122344B52423449DB
:1055600008008A4612F0BCFF002803D1C0BCBB462D
:10557000B246F8BD002001F08DFA00284AD000267E
:10558000002C43DD2B4B9B4614E0A919002001F0B1
:105590001FFB070001200021404200F091FC002089
:1055A00001F0DCFAFCF7A4FD224BF61918605960F3
:1055B000B4422BDD002001F02BFBA71B0200B842F8
:1055C00000DD3A00002AE0D101200021404200F035
:1055D00077FC002001F0C2FA002001F05BFA0028FD
:1055E00014D0002001F014FB0028E1D1FCF780FD6D
:1055F0005B460F001A685B68002184460E4812184B
:105600004B419F4202D8D3D19445D1D9504612F094
:1056100027FFABE700200021064B18605960504679
:1056200012F01EFFA2E7C04640420F00FFFFFF7FBF
:10563000F8290320C019002020A1070030B52A4C0A
:1056400085B00021200012F02BFF00281CD1274B31
:105650001A68002A16D0EFF3108172B6106800287D
:10566000FCD0BFF35F8F01242148596002781B688A
:10567000D2B20470BFF35F8F0020186081F31088EE
:10568000002A17D005B030BD01200021404200F0B3
:1056900017FC002001F014FA0500200012F0E0FED3
:1056A000002DEFD0134B1B68002BEBD0124A106873
:1056B0009847E7E7FCF79EFA0400FCF719FDFA2289
:1056C0000023920012184B41002B02DA01220B4BEF
:1056D00052420121029100210191094920000091CB
:1056E000FCF78CFACEE7C046F8290320B428032043
:1056F000802A0320F4230020FC230020FFFFFF7FEB
:1057000001540010D02310B51B0684B01C68FCF7B0
:1057100071FAFCF76DFBA04202D0002004B010BD6E
:10572000294B002100201B7801F066FD2748036803
:10573000002B45D00120FBF7DBFFFF23244C25493C
:1057400020701840FBF76CFD20780121FBF730FD3D
:105750000520FBF753FD002824D1082200211E4814
:10576000FDF776FDFCF746FA0400FCF7C1FCFA22CF
:105770000023920012184B41002B02DA0122174B32
:10578000524201210291002101911549200000910E
:10579000FCF734FA0028C0DB12480121FFF7ACFB0C
:1057A0000120BBE70120FBF7D1FC0B4B01001800E7
:1057B000FCF710F8002205200B49FBF75BFDEBE737
:1057C000FBF7ECFFB6E7C04648260510F829032092
:1057D0007E2A03203D560010B4280320FFFFFF7FE0
:1057E0000154001008120020F153001000487047C7
:1057F00054AB01100048704700AB011010B5040015
:1058000017480378002B20D0002C06D1154B1648E2
:105810004380063BFF3B038010BD052C1DD8134B76
:10582000A400E05812490123013804E001330A8042
:105830000231142B0DD0C25C002AF7D1C022DBB29A
:105840005B00920008481343E5E7112100F022F8BD
:10585000DAE7CA2304489B00DDE70020DCE7C04606
:10586000442A032009040000D42D0020E8AA0110D6
:10587000D62D002010B5024800F0E0F810BDC0465B
:10588000E028032010B508220149FDF7E7FC10BD10
:10589000E028032030B54B1E012900D1A7E0664A5D
:1058A00011780D092C0030349F2900D9A2E0047032
:1058B000012B00D1BEE00F21147821400C003034C0
:1058C000092900D998E04470022B00D1B2E0547845
:1058D0002509290030319F2C00D990E08170032BDD
:1058E00000D1A7E00F2121400C003034092900D954
:1058F00087E0C470042B00D19CE09478250929002E
:1059000030319F2C00D97FE00171052B00D191E04F
:105910000F2121400C003034092900D976E0447170
:10592000062B00D186E0D4782509290030319F2C40
:1059300000D96EE08171072B00D17BE00F2121405F
:105940000C003034092966D8C471082B00D171E0ED
:1059500014792509290030319F2C5FD80172092B59
:1059600068D00F2121400C003034092958D84472E6
:105970000A2B5FD054792509290030319F2C52D849
:1059800081720B2B56D00F2121400C003034092995
:105990004BD8C4720C2B4DD0947925092900303195
:1059A0009F2C00D9073101730D2B43D00F212140CB
:1059B0000C003034092901D937310C0044730E2B07
:1059C00038D0D1790C09220030329F2900D9073212
:1059D00082730F2B2ED00F220A4011003731092A73
:1059E00001D830321100C173102B23D010300023A6
:1059F000037030BD07345AE737310C0063E70731D5
:105A00006CE737310C0074E707317DE737310C0064
:105A100085E707318EE737310C0095E707319DE7C1
:105A200037310C00A3E70731AAE737310C00C47205
:105A30000C2BB1D1C018DAE7E028032010B588B0EC
:105A400004000D2200216846FDF702FC0D22002112
:105A500004A8FDF7FDFB4B236A466846137004A9B2
:105A60000D2212F0F5FC1521082220006944FDF7F3
:105A7000F5FB08B010BDC046F8B500F047F90C239F
:105A8000194DFF22AB6705201849FBF7F3FB184CB3
:105A9000402200212000FDF7DBFB402700230126E8
:105AA0002121144A66702783A260136063545F311A
:105AB000618445396354104A10496360E260278766
:105AC000A1620B606362E26212F01AFD80239B0503
:105AD0002E64EB6490230A4A0120EA508022094B8D
